block = '{"author":"0x0004de837ea93edbe51c093f45212ab22b4b35fc","difficulty":"0x16a40ebf","extraData":"0xd58301040a8650617269747986312e31342e30826c69","gasLimit":"0x47d5de","gasUsed":"0x8314","hash":"0x39b884145706ab798417e2f52e76e1a58a4b12073a11ee97a9ec606fb5a10254","logsBloom":"0x00000000000000000200000000000000000000000400000000000000000000000000000000000000000000000000000000010000000000000000000000000000000000000000000000000000000000000000000020000000000000000000000000000000000000000000000000000000000000000000000000000000000000000000000000000000000000000000000000000000000000000000000000000000000000000000000000000000000000000000000000000000000000000000001000000200000000000000000000000000000000000000000000000000000000000000000000000000000000000000000000000000000000000000000000000000","miner":"0x0004de837ea93edbe51c093f45212ab22b4b35fc","mixHash":"0x4f1b6dccc0c0b6a75ca7ea2b8a3572e5055294803a705763eef008a6ba74b058","nonce":"0x736c8cde0e504d31","number":"0x64f92","parentHash":"0x8df42e63d3861db2a84fa1b50be0a4545a81cec55479c83cd0a616b664ab2d7b","receiptsRoot":"0x24e12a3707671e164462cb65d31b1214dce39b6e639eef273f9946ac79fbd495","sealFields":["0x4f1b6dccc0c0b6a75ca7ea2b8a3572e5055294803a705763eef008a6ba74b058","0x736c8cde0e504d31"],"sha3Uncles":"0x1dcc4de8dec75d7aab85b567b6ccd41ad312451b948a7413f0a142fd40d49347","size":"0x2ca","stateRoot":"0xd1f4ff4ad15c384ba1ef2cb3e4aef46d447d4a23cd03dc31777318a8ef37f0f2","timestamp":"0x58895cc3","totalDifficulty":"0x524791e40b9a","transactions":[{"blockHash":"0x39b884145706ab798417e2f52e76e1a58a4b12073a11ee97a9ec606fb5a10254","blockNumber":"0x64f92","creates":null,"from":"0x7e03f6c974bba59d6ea1893b42c3dcb8de54e148","gas":"0x3567e0","gasPrice":"0x4a817c800","hash":"0x956f0af9b04f183d5d13f226a0d58680505dfc79c669a8eae289c7c573c4112e","input":"0xb72f6ee3000000000000000000000000000000000000000000000aa8494e06d3f3600000000000000000000000000000085f40a1bdff31040f21899eee4162cb95a92740","minBlock":null,"networkId":null,"nonce":"0x3462","publicKey":"0x282712b15855c6400cd29098c98a42414089b86a1aee31ffe7a3f7ca516223698341a4a0f558768724387275ecfbf660704895eee1a1df02b44effe961552e61","r":"0x807e557bc0b659f9fc0c263c2047181a53d6b2f834562d94ac2c8d4a06a8b480","raw":"0xf8ac8234628504a817c800833567e0946651fdb9d5d15ca55cc534ee5fa6c3432acdf15b80b844b72f6ee3000000000000000000000000000000000000000000000aa8494e06d3f3600000000000000000000000000000085f40a1bdff31040f21899eee4162cb95a927401ba0807e557bc0b659f9fc0c263c2047181a53d6b2f834562d94ac2c8d4a06a8b480a07471c32a6eea30c9acb597ebbecd1547e8b553edca45aae28f51f830847b50a6","s":"0x7471c32a6eea30c9acb597ebbecd1547e8b553edca45aae28f51f830847b50a6","standardV":"0x0","to":"0x6651fdb9d5d15ca55cc534ee5fa6c3432acdf15b","transactionIndex":"0x0","v":"0x1b","value":"0x0"}],"transactionsRoot":"0x9e93619d5a5fee24b8eefbb622bba177d845883e4d1231f61c2e7d1fe7700f16","uncles":[]}'
